{
	"Sample.sol": {
		"testContract": {
			"abi": [
				{
					"inputs": [
						{
							"internalType": "uint256",
							"name": "_p",
							"type": "uint256"
						}
					],
					"stateMutability": "nonpayable",
					"type": "constructor"
				},
				{
					"inputs": [],
					"name": "get",
					"outputs": [
						{
							"internalType": "uint256",
							"name": "",
							"type": "uint256"
						}
					],
					"stateMutability": "view",
					"type": "function"
				},
				{
					"inputs": [
						{
							"internalType": "uint256",
							"name": "_n",
							"type": "uint256"
						}
					],
					"name": "setNP",
					"outputs": [],
					"stateMutability": "nonpayable",
					"type": "function"
				},
				{
					"inputs": [
						{
							"internalType": "uint256",
							"name": "_n",
							"type": "uint256"
						}
					],
					"name": "setP",
					"outputs": [],
					"stateMutability": "payable",
					"type": "function"
				}
			],
			"devdoc": {
				"kind": "dev",
				"methods": {},
				"version": 1
			},
			"evm": {
				"assembly": "    /* \"Sample.sol\":62:387  contract testContract {... */\n  mstore(0x40, 0x80)\n    /* \"Sample.sol\":111:163  constructor (uint256 _p) {... */\n  callvalue\n  dup1\n  iszero\n  tag_1\n  jumpi\n  0x00\n  dup1\n  revert\ntag_1:\n  pop\n  mload(0x40)\n  sub(codesize, bytecodeSize)\n  dup1\n  bytecodeSize\n  dup4\n  codecopy\n  dup2\n  dup2\n  add\n  0x40\n  mstore\n  0x20\n  dup2\n  lt\n  iszero\n  tag_2\n  jumpi\n  0x00\n  dup1\n  revert\ntag_2:\n  dup2\n  add\n  swap1\n  dup1\n  dup1\n  mload\n  swap1\n  0x20\n  add\n  swap1\n  swap3\n  swap2\n  swap1\n  pop\n  pop\n  pop\n    /* \"Sample.sol\":154:156  _p */\n  dup1\n    /* \"Sample.sol\":146:151  value */\n  0x00\n    /* \"Sample.sol\":146:156  value = _p */\n  dup2\n  swap1\n  sstore\n  pop\n    /* \"Sample.sol\":111:163  constructor (uint256 _p) {... */\n  pop\n    /* \"Sample.sol\":62:387  contract testContract {... */\n  dataSize(sub_0)\n  dup1\n  dataOffset(sub_0)\n  0x00\n  codecopy\n  0x00\n  return\nstop\n\nsub_0: assembly {\n        /* \"Sample.sol\":62:387  contract testContract {... */\n      mstore(0x40, 0x80)\n      jumpi(tag_1, lt(calldatasize, 0x04))\n      shr(0xe0, calldataload(0x00))\n      dup1\n      0x159fbdb2\n      eq\n      tag_2\n      jumpi\n      dup1\n      0x6d4ce63c\n      eq\n      tag_3\n      jumpi\n      dup1\n      0xc95473db\n      eq\n      tag_4\n      jumpi\n    tag_1:\n      0x00\n      dup1\n      revert\n        /* \"Sample.sol\":243:304  function setNP(uint256 _n) public {... */\n    tag_2:\n      callvalue\n      dup1\n      iszero\n      tag_5\n      jumpi\n      0x00\n      dup1\n      revert\n    tag_5:\n      pop\n      tag_6\n      0x04\n      dup1\n      calldatasize\n      sub\n      0x20\n      dup2\n      lt\n      iszero\n      tag_7\n      jumpi\n      0x00\n      dup1\n      revert\n    tag_7:\n      dup2\n      add\n      swap1\n      dup1\n      dup1\n      calldataload\n      swap1\n      0x20\n      add\n      swap1\n      swap3\n      swap2\n      swap1\n      pop\n      pop\n      pop\n      tag_8\n      jump\t// in\n    tag_6:\n      stop\n        /* \"Sample.sol\":310:385  function get () view public returns (uint256) {... */\n    tag_3:\n      callvalue\n      dup1\n      iszero\n      tag_9\n      jumpi\n      0x00\n      dup1\n      revert\n    tag_9:\n      pop\n      tag_10\n      tag_11\n      jump\t// in\n    tag_10:\n      mload(0x40)\n      dup1\n      dup3\n      dup2\n      mstore\n      0x20\n      add\n      swap2\n      pop\n      pop\n      mload(0x40)\n      dup1\n      swap2\n      sub\n      swap1\n      return\n        /* \"Sample.sol\":169:237  function setP(uint256 _n) payable public {... */\n    tag_4:\n      tag_12\n      0x04\n      dup1\n      calldatasize\n      sub\n      0x20\n      dup2\n      lt\n      iszero\n      tag_13\n      jumpi\n      0x00\n      dup1\n      revert\n    tag_13:\n      dup2\n      add\n      swap1\n      dup1\n      dup1\n      calldataload\n      swap1\n      0x20\n      add\n      swap1\n      swap3\n      swap2\n      swap1\n      pop\n      pop\n      pop\n      tag_14\n      jump\t// in\n    tag_12:\n      stop\n        /* \"Sample.sol\":243:304  function setNP(uint256 _n) public {... */\n    tag_8:\n        /* \"Sample.sol\":295:297  _n */\n      dup1\n        /* \"Sample.sol\":287:292  value */\n      0x00\n        /* \"Sample.sol\":287:297  value = _n */\n      dup2\n      swap1\n      sstore\n      pop\n        /* \"Sample.sol\":243:304  function setNP(uint256 _n) public {... */\n      pop\n      jump\t// out\n        /* \"Sample.sol\":310:385  function get () view public returns (uint256) {... */\n    tag_11:\n        /* \"Sample.sol\":347:354  uint256 */\n      0x00\n        /* \"Sample.sol\":373:378  value */\n      dup1\n      sload\n        /* \"Sample.sol\":366:378  return value */\n      swap1\n      pop\n        /* \"Sample.sol\":310:385  function get () view public returns (uint256) {... */\n      swap1\n      jump\t// out\n        /* \"Sample.sol\":169:237  function setP(uint256 _n) payable public {... */\n    tag_14:\n        /* \"Sample.sol\":228:230  _n */\n      dup1\n        /* \"Sample.sol\":220:225  value */\n      0x00\n        /* \"Sample.sol\":220:230  value = _n */\n      dup2\n      swap1\n      sstore\n      pop\n        /* \"Sample.sol\":169:237  function setP(uint256 _n) payable public {... */\n      pop\n      jump\t// out\n\n    auxdata: 0xa26469706673582212206a6991543761ad1c0dd58a5543d4b71a8e9d2d906eb0de9279a83d77af275e5364736f6c63430007060033\n}\n",
				"bytecode": {
					"linkReferences": {},
					"object": "608060405234801561001057600080fd5b5060405161016d38038061016d8339818101604052602081101561003357600080fd5b810190808051906020019092919050505080600081905550506101128061005b6000396000f3fe60806040526004361060305760003560e01c8063159fbdb21460355780636d4ce63c14606c578063c95473db146094575b600080fd5b348015604057600080fd5b50606a60048036036020811015605557600080fd5b810190808035906020019092919050505060bf565b005b348015607757600080fd5b50607e60c9565b6040518082815260200191505060405180910390f35b60bd6004803603602081101560a857600080fd5b810190808035906020019092919050505060d2565b005b8060008190555050565b60008054905090565b806000819055505056fea26469706673582212206a6991543761ad1c0dd58a5543d4b71a8e9d2d906eb0de9279a83d77af275e5364736f6c63430007060033",
					"opcodes": "PUSH1 0x80 PUSH1 0x40 MSTORE CALLVALUE DUP1 ISZERO PUSH2 0x10 JUMPI PUSH1 0x0 DUP1 REVERT JUMPDEST POP PUSH1 0x40 MLOAD PUSH2 0x16D CODESIZE SUB DUP1 PUSH2 0x16D DUP4 CODECOPY DUP2 DUP2 ADD PUSH1 0x40 MSTORE PUSH1 0x20 DUP2 LT ISZERO PUSH2 0x33 JUMPI PUSH1 0x0 DUP1 REVERT JUMPDEST DUP2 ADD SWAP1 DUP1 DUP1 MLOAD SWAP1 PUSH1 0x20 ADD SWAP1 SWAP3 SWAP2 SWAP1 POP POP POP DUP1 PUSH1 0x0 DUP2 SWAP1 SSTORE POP POP PUSH2 0x112 DUP1 PUSH2 0x5B PUSH1 0x0 CODECOPY PUSH1 0x0 RETURN INVALID PUSH1 0x80 PUSH1 0x40 MSTORE PUSH1 0x4 CALLDATASIZE LT PUSH1 0x30 JUMPI PUSH1 0x0 CALLDATALOAD PUSH1 0xE0 SHR DUP1 PUSH4 0x159FBDB2 EQ PUSH1 0x35 JUMPI DUP1 PUSH4 0x6D4CE63C EQ PUSH1 0x6C JUMPI DUP1 PUSH4 0xC95473DB EQ PUSH1 0x94 JUMPI JUMPDEST PUSH1 0x0 DUP1 REVERT JUMPDEST CALLVALUE DUP1 ISZERO PUSH1 0x40 JUMPI PUSH1 0x0 DUP1 REVERT JUMPDEST POP PUSH1 0x6A PUSH1 0x4 DUP1 CALLDATASIZE SUB PUSH1 0x20 DUP2 LT ISZERO PUSH1 0x55 JUMPI PUSH1 0x0 DUP1 REVERT JUMPDEST DUP2 ADD SWAP1 DUP1 DUP1 CALLDATALOAD SWAP1 PUSH1 0x20 ADD SWAP1 SWAP3 SWAP2 SWAP1 POP POP POP PUSH1 0xBF JUMP JUMPDEST STOP JUMPDEST CALLVALUE DUP1 ISZERO PUSH1 0x77 JUMPI PUSH1 0x0 DUP1 REVERT JUMPDEST POP PUSH1 0x7E PUSH1 0xC9 JUMP JUMPDEST PUSH1 0x40 MLOAD DUP1 DUP3 DUP2 MSTORE PUSH1 0x20 ADD SWAP2 POP POP PUSH1 0x40 MLOAD DUP1 SWAP2 SUB SWAP1 RETURN JUMPDEST PUSH1 0xBD PUSH1 0x4 DUP1 CALLDATASIZE SUB PUSH1 0x20 DUP2 LT ISZERO PUSH1 0xA8 JUMPI PUSH1 0x0 DUP1 REVERT JUMPDEST DUP2 ADD SWAP1 DUP1 DUP1 CALLDATALOAD SWAP1 PUSH1 0x20 ADD SWAP1 SWAP3 SWAP2 SWAP1 POP POP POP PUSH1 0xD2 JUMP JUMPDEST STOP JUMPDEST DUP1 PUSH1 0x0 DUP2 SWAP1 SSTORE POP POP JUMP JUMPDEST PUSH1 0x0 DUP1 SLOAD SWAP1 POP SWAP1 JUMP JUMPDEST DUP1 PUSH1 0x0 DUP2 SWAP1 SSTORE POP POP JUMP INVALID LOG2 PUSH5 0x6970667358 0x22 SLT KECCAK256 PUSH11 0x6991543761AD1C0DD58A55 NUMBER 0xD4 0xB7 BYTE DUP15 SWAP14 0x2D SWAP1 PUSH15 0xB0DE9279A83D77AF275E5364736F6C PUSH4 0x43000706 STOP CALLER "
				},
				"gasEstimates": {
					"creation": {
						"codeDepositCost": "54800",
						"executionCost": "infinite",
						"totalCost": "infinite"
					},
					"external": {
						"get()": "1013",
						"setNP(uint256)": "20220",
						"setP(uint256)": "20240"
					}
				},
				"methodIdentifiers": {
					"get()": "6d4ce63c",
					"setNP(uint256)": "159fbdb2",
					"setP(uint256)": "c95473db"
				}
			},
			"storageLayout": {
				"storage": [
					{
						"astId": 3,
						"contract": "Sample.sol:testContract",
						"label": "value",
						"offset": 0,
						"slot": "0",
						"type": "t_uint256"
					}
				],
				"types": {
					"t_uint256": {
						"encoding": "inplace",
						"label": "uint256",
						"numberOfBytes": "32"
					}
				}
			},
			"userdoc": {
				"kind": "user",
				"methods": {},
				"version": 1
			}
		}
	}
}